{
  "_format": "hh-sol-artifact-1",
  "contractName": "DegenToken",
  "sourceName": "contracts/DegenToken.sol",
  "abi": [
    {
      "inputs": [],
      "stateMutability": "nonpayable",
      "type": "constructor"
    },
    {
      "anonymous": false,
      "inputs": [
        {
          "indexed": true,
          "internalType": "address",
          "name": "owner",
          "type": "address"
        },
        {
          "indexed": true,
          "internalType": "address",
          "name": "spender",
          "type": "address"
        },
        {
          "indexed": false,
          "internalType": "uint256",
          "name": "value",
          "type": "uint256"
        }
      ],
      "name": "Approval",
      "type": "event"
    },
    {
      "anonymous": false,
      "inputs": [
        {
          "indexed": true,
          "internalType": "address",
          "name": "previousOwner",
          "type": "address"
        },
        {
          "indexed": true,
          "internalType": "address",
          "name": "newOwner",
          "type": "address"
        }
      ],
      "name": "OwnershipTransferred",
      "type": "event"
    },
    {
      "anonymous": false,
      "inputs": [
        {
          "indexed": true,
          "internalType": "address",
          "name": "from",
          "type": "address"
        },
        {
          "indexed": true,
          "internalType": "address",
          "name": "to",
          "type": "address"
        },
        {
          "indexed": false,
          "internalType": "uint256",
          "name": "value",
          "type": "uint256"
        }
      ],
      "name": "Transfer",
      "type": "event"
    },
    {
      "inputs": [
        {
          "internalType": "address",
          "name": "owner",
          "type": "address"
        },
        {
          "internalType": "address",
          "name": "spender",
          "type": "address"
        }
      ],
      "name": "allowance",
      "outputs": [
        {
          "internalType": "uint256",
          "name": "",
          "type": "uint256"
        }
      ],
      "stateMutability": "view",
      "type": "function"
    },
    {
      "inputs": [
        {
          "internalType": "address",
          "name": "spender",
          "type": "address"
        },
        {
          "internalType": "uint256",
          "name": "amount",
          "type": "uint256"
        }
      ],
      "name": "approve",
      "outputs": [
        {
          "internalType": "bool",
          "name": "",
          "type": "bool"
        }
      ],
      "stateMutability": "nonpayable",
      "type": "function"
    },
    {
      "inputs": [
        {
          "internalType": "address",
          "name": "account",
          "type": "address"
        }
      ],
      "name": "balanceOf",
      "outputs": [
        {
          "internalType": "uint256",
          "name": "",
          "type": "uint256"
        }
      ],
      "stateMutability": "view",
      "type": "function"
    },
    {
      "inputs": [
        {
          "internalType": "uint256",
          "name": "amount",
          "type": "uint256"
        }
      ],
      "name": "burn",
      "outputs": [],
      "stateMutability": "nonpayable",
      "type": "function"
    },
    {
      "inputs": [
        {
          "internalType": "address",
          "name": "to",
          "type": "address"
        }
      ],
      "name": "checkBalance",
      "outputs": [
        {
          "internalType": "uint256",
          "name": "",
          "type": "uint256"
        }
      ],
      "stateMutability": "view",
      "type": "function"
    },
    {
      "inputs": [
        {
          "internalType": "string",
          "name": "name",
          "type": "string"
        },
        {
          "internalType": "uint256",
          "name": "amount",
          "type": "uint256"
        }
      ],
      "name": "createInGameItem",
      "outputs": [],
      "stateMutability": "nonpayable",
      "type": "function"
    },
    {
      "inputs": [],
      "name": "decimals",
      "outputs": [
        {
          "internalType": "uint8",
          "name": "",
          "type": "uint8"
        }
      ],
      "stateMutability": "view",
      "type": "function"
    },
    {
      "inputs": [
        {
          "internalType": "address",
          "name": "spender",
          "type": "address"
        },
        {
          "internalType": "uint256",
          "name": "subtractedValue",
          "type": "uint256"
        }
      ],
      "name": "decreaseAllowance",
      "outputs": [
        {
          "internalType": "bool",
          "name": "",
          "type": "bool"
        }
      ],
      "stateMutability": "nonpayable",
      "type": "function"
    },
    {
      "inputs": [
        {
          "internalType": "uint256",
          "name": "itemId",
          "type": "uint256"
        }
      ],
      "name": "gameItemBalance",
      "outputs": [
        {
          "internalType": "uint256",
          "name": "",
          "type": "uint256"
        }
      ],
      "stateMutability": "view",
      "type": "function"
    },
    {
      "inputs": [
        {
          "internalType": "address",
          "name": "spender",
          "type": "address"
        },
        {
          "internalType": "uint256",
          "name": "addedValue",
          "type": "uint256"
        }
      ],
      "name": "increaseAllowance",
      "outputs": [
        {
          "internalType": "bool",
          "name": "",
          "type": "bool"
        }
      ],
      "stateMutability": "nonpayable",
      "type": "function"
    },
    {
      "inputs": [
        {
          "internalType": "address",
          "name": "to",
          "type": "address"
        },
        {
          "internalType": "uint256",
          "name": "amount",
          "type": "uint256"
        }
      ],
      "name": "mint",
      "outputs": [],
      "stateMutability": "nonpayable",
      "type": "function"
    },
    {
      "inputs": [],
      "name": "name",
      "outputs": [
        {
          "internalType": "string",
          "name": "",
          "type": "string"
        }
      ],
      "stateMutability": "view",
      "type": "function"
    },
    {
      "inputs": [],
      "name": "owner",
      "outputs": [
        {
          "internalType": "address",
          "name": "",
          "type": "address"
        }
      ],
      "stateMutability": "view",
      "type": "function"
    },
    {
      "inputs": [
        {
          "internalType": "uint256",
          "name": "itemId",
          "type": "uint256"
        }
      ],
      "name": "redeem",
      "outputs": [],
      "stateMutability": "nonpayable",
      "type": "function"
    },
    {
      "inputs": [],
      "name": "renounceOwnership",
      "outputs": [],
      "stateMutability": "nonpayable",
      "type": "function"
    },
    {
      "inputs": [
        {
          "internalType": "address",
          "name": "to",
          "type": "address"
        },
        {
          "internalType": "uint256",
          "name": "amount",
          "type": "uint256"
        }
      ],
      "name": "sendTokenToPlayer",
      "outputs": [],
      "stateMutability": "nonpayable",
      "type": "function"
    },
    {
      "inputs": [],
      "name": "symbol",
      "outputs": [
        {
          "internalType": "string",
          "name": "",
          "type": "string"
        }
      ],
      "stateMutability": "view",
      "type": "function"
    },
    {
      "inputs": [],
      "name": "totalSupply",
      "outputs": [
        {
          "internalType": "uint256",
          "name": "",
          "type": "uint256"
        }
      ],
      "stateMutability": "view",
      "type": "function"
    },
    {
      "inputs": [
        {
          "internalType": "address",
          "name": "to",
          "type": "address"
        },
        {
          "internalType": "uint256",
          "name": "amount",
          "type": "uint256"
        }
      ],
      "name": "transfer",
      "outputs": [
        {
          "internalType": "bool",
          "name": "",
          "type": "bool"
        }
      ],
      "stateMutability": "nonpayable",
      "type": "function"
    },
    {
      "inputs": [
        {
          "internalType": "address",
          "name": "from",
          "type": "address"
        },
        {
          "internalType": "address",
          "name": "to",
          "type": "address"
        },
        {
          "internalType": "uint256",
          "name": "amount",
          "type": "uint256"
        }
      ],
      "name": "transferFrom",
      "outputs": [
        {
          "internalType": "bool",
          "name": "",
          "type": "bool"
        }
      ],
      "stateMutability": "nonpayable",
      "type": "function"
    },
    {
      "inputs": [
        {
          "internalType": "address",
          "name": "newOwner",
          "type": "address"
        }
      ],
      "name": "transferOwnership",
      "outputs": [],
      "stateMutability": "nonpayable",
      "type": "function"
    }
  ],
  "bytecode": "0x60806040523480156200001157600080fd5b506040518060400160405280600581526020017f446567656e0000000000000000000000000000000000000000000000000000008152506040518060400160405280600381526020017f44474e000000000000000000000000000000000000000000000000000000000081525081600390816200008f919062000412565b508060049081620000a1919062000412565b505050620000c4620000b8620000ca60201b60201c565b620000d260201b60201c565b620004f9565b600033905090565b6000600560009054906101000a900473ffffffffffffffffffffffffffffffffffffffff16905081600560006101000a81548173ffffffffffffffffffffffffffffffffffffffff021916908373ffffffffffffffffffffffffffffffffffffffff1602179055508173ffffffffffffffffffffffffffffffffffffffff168173ffffffffffffffffffffffffffffffffffffffff167f8be0079c531659141344cd1fd0a4f28419497f9722a3daafe3b4186f6b6457e060405160405180910390a35050565b600081519050919050565b7f4e487b7100000000000000000000000000000000000000000000000000000000600052604160045260246000fd5b7f4e487b7100000000000000000000000000000000000000000000000000000000600052602260045260246000fd5b600060028204905060018216806200021a57607f821691505b60208210810362000230576200022f620001d2565b5b50919050565b60008190508160005260206000209050919050565b60006020601f8301049050919050565b600082821b905092915050565b6000600883026200029a7fffffffffffffffffffffffffffffffffffffffffffffffffffffffffffffffff826200025b565b620002a686836200025b565b95508019841693508086168417925050509392505050565b6000819050919050565b6000819050919050565b6000620002f3620002ed620002e784620002be565b620002c8565b620002be565b9050919050565b6000819050919050565b6200030f83620002d2565b620003276200031e82620002fa565b84845462000268565b825550505050565b600090565b6200033e6200032f565b6200034b81848462000304565b505050565b5b8181101562000373576200036760008262000334565b60018101905062000351565b5050565b601f821115620003c2576200038c8162000236565b62000397846200024b565b81016020851015620003a7578190505b620003bf620003b6856200024b565b83018262000350565b50505b505050565b600082821c905092915050565b6000620003e760001984600802620003c7565b1980831691505092915050565b6000620004028383620003d4565b9150826002028217905092915050565b6200041d8262000198565b67ffffffffffffffff811115620004395762000438620001a3565b5b62000445825462000201565b6200045282828562000377565b600060209050601f8311600181146200048a576000841562000475578287015190505b620004818582620003f4565b865550620004f1565b601f1984166200049a8662000236565b60005b82811015620004c4578489015182556001820191506020850194506020810190506200049d565b86831015620004e45784890151620004e0601f891682620003d4565b8355505b6001600288020188555050505b505050505050565b61225c80620005096000396000f3fe608060405234801561001057600080fd5b50600436106101375760003560e01c80636c9fda43116100b8578063a457c2d71161007c578063a457c2d714610350578063a9059cbb14610380578063d352be35146103b0578063db006a75146103cc578063dd62ed3e146103e8578063f2fde38b1461041857610137565b80636c9fda43146102aa57806370a08231146102da578063715018a61461030a5780638da5cb5b1461031457806395d89b411461033257610137565b8063313ce567116100ff578063313ce567146101f4578063395093511461021257806340c10f191461024257806342966c681461025e5780635f5152261461027a57610137565b806306fdde031461013c578063095ea7b31461015a5780630a28aac81461018a57806318160ddd146101a657806323b872dd146101c4575b600080fd5b610144610434565b60405161015191906113ee565b60405180910390f35b610174600480360381019061016f91906114b8565b6104c6565b6040516101819190611513565b60405180910390f35b6101a4600480360381019061019f9190611663565b6104e9565b005b6101ae61056c565b6040516101bb91906116ce565b60405180910390f35b6101de60048036038101906101d991906116e9565b610576565b6040516101eb9190611513565b60405180910390f35b6101fc6105a5565b6040516102099190611758565b60405180910390f35b61022c600480360381019061022791906114b8565b6105ae565b6040516102399190611513565b60405180910390f35b61025c600480360381019061025791906114b8565b6105e5565b005b61027860048036038101906102739190611773565b6105fb565b005b610294600480360381019061028f91906117a0565b610608565b6040516102a191906116ce565b60405180910390f35b6102c460048036038101906102bf9190611773565b61061a565b6040516102d191906116ce565b60405180910390f35b6102f460048036038101906102ef91906117a0565b610674565b60405161030191906116ce565b60405180910390f35b6103126106bc565b005b61031c6106d0565b60405161032991906117dc565b60405180910390f35b61033a6106fa565b60405161034791906113ee565b60405180910390f35b61036a600480360381019061036591906114b8565b61078c565b6040516103779190611513565b60405180910390f35b61039a600480360381019061039591906114b8565b610803565b6040516103a79190611513565b60405180910390f35b6103ca60048036038101906103c591906114b8565b610826565b005b6103e660048036038101906103e19190611773565b610835565b005b61040260048036038101906103fd91906117f7565b610910565b60405161040f91906116ce565b60405180910390f35b610432600480360381019061042d91906117a0565b610997565b005b60606003805461044390611866565b80601f016020809104026020016040519081016040528092919081815260200182805461046f90611866565b80156104bc5780601f10610491576101008083540402835291602001916104bc565b820191906000526020600020905b81548152906001019060200180831161049f57829003601f168201915b5050505050905090565b6000806104d1610a1a565b90506104de818585610a22565b600191505092915050565b6104f1610beb565b60405180606001604052806006548152602001838152602001828152506007600060065481526020019081526020016000206000820151816000015560208201518160010190816105429190611a43565b50604082015181600201559050506006600081548092919061056390611b44565b91905055505050565b6000600254905090565b600080610581610a1a565b905061058e858285610c69565b610599858585610cf5565b60019150509392505050565b60006012905090565b6000806105b9610a1a565b90506105da8185856105cb8589610910565b6105d59190611b8c565b610a22565b600191505092915050565b6105ed610beb565b6105f78282610f6b565b5050565b61060533826110c1565b50565b600061061382610674565b9050919050565b6000600860003373ffffffffffffffffffffffffffffffffffffffff1673ffffffffffffffffffffffffffffffffffffffff1681526020019081526020016000206000838152602001908152602001600020549050919050565b60008060008373ffffffffffffffffffffffffffffffffffffffff1673ffffffffffffffffffffffffffffffffffffffff168152602001908152602001600020549050919050565b6106c4610beb565b6106ce600061128e565b565b6000600560009054906101000a900473ffffffffffffffffffffffffffffffffffffffff16905090565b60606004805461070990611866565b80601f016020809104026020016040519081016040528092919081815260200182805461073590611866565b80156107825780601f1061075757610100808354040283529160200191610782565b820191906000526020600020905b81548152906001019060200180831161076557829003601f168201915b5050505050905090565b600080610797610a1a565b905060006107a58286610910565b9050838110156107ea576040517f08c379a00000000000000000000000000000000000000000000000000000000081526004016107e190611c32565b60405180910390fd5b6107f78286868403610a22565b60019250505092915050565b60008061080e610a1a565b905061081b818585610cf5565b600191505092915050565b6108308282610803565b505050565b6000600760008381526020019081526020016000206002015490506001600860003373ffffffffffffffffffffffffffffffffffffffff1673ffffffffffffffffffffffffffffffffffffffff1681526020019081526020016000206000848152602001908152602001600020546108ad9190611b8c565b600860003373ffffffffffffffffffffffffffffffffffffffff1673ffffffffffffffffffffffffffffffffffffffff16815260200190815260200160002060008481526020019081526020016000208190555061090b3082610803565b505050565b6000600160008473ffffffffffffffffffffffffffffffffffffffff1673ffffffffffffffffffffffffffffffffffffffff16815260200190815260200160002060008373ffffffffffffffffffffffffffffffffffffffff1673ffffffffffffffffffffffffffffffffffffffff16815260200190815260200160002054905092915050565b61099f610beb565b600073ffffffffffffffffffffffffffffffffffffffff168173ffffffffffffffffffffffffffffffffffffffff1603610a0e576040517f08c379a0000000000000000000000000000000000000000000000000000000008152600401610a0590611cc4565b60405180910390fd5b610a178161128e565b50565b600033905090565b600073ffffffffffffffffffffffffffffffffffffffff168373ffffffffffffffffffffffffffffffffffffffff1603610a91576040517f08c379a0000000000000000000000000000000000000000000000000000000008152600401610a8890611d56565b60405180910390fd5b600073ffffffffffffffffffffffffffffffffffffffff168273ffffffffffffffffffffffffffffffffffffffff1603610b00576040517f08c379a0000000000000000000000000000000000000000000000000000000008152600401610af790611de8565b60405180910390fd5b80600160008573ffffffffffffffffffffffffffffffffffffffff1673ffffffffffffffffffffffffffffffffffffffff16815260200190815260200160002060008473ffffffffffffffffffffffffffffffffffffffff1673ffffffffffffffffffffffffffffffffffffffff168152602001908152602001600020819055508173ffffffffffffffffffffffffffffffffffffffff168373ffffffffffffffffffffffffffffffffffffffff167f8c5be1e5ebec7d5bd14f71427d1e84f3dd0314c0f7b2291e5b200ac8c7c3b92583604051610bde91906116ce565b60405180910390a3505050565b610bf3610a1a565b73ffffffffffffffffffffffffffffffffffffffff16610c116106d0565b73ffffffffffffffffffffffffffffffffffffffff1614610c67576040517f08c379a0000000000000000000000000000000000000000000000000000000008152600401610c5e90611e54565b60405180910390fd5b565b6000610c758484610910565b90507fffffffffffffffffffffffffffffffffffffffffffffffffffffffffffffffff8114610cef5781811015610ce1576040517f08c379a0000000000000000000000000000000000000000000000000000000008152600401610cd890611ec0565b60405180910390fd5b610cee8484848403610a22565b5b50505050565b600073ffffffffffffffffffffffffffffffffffffffff168373ffffffffffffffffffffffffffffffffffffffff1603610d64576040517f08c379a0000000000000000000000000000000000000000000000000000000008152600401610d5b90611f52565b60405180910390fd5b600073ffffffffffffffffffffffffffffffffffffffff168273ffffffffffffffffffffffffffffffffffffffff1603610dd3576040517f08c379a0000000000000000000000000000000000000000000000000000000008152600401610dca90611fe4565b60405180910390fd5b610dde838383611354565b60008060008573ffffffffffffffffffffffffffffffffffffffff1673ffffffffffffffffffffffffffffffffffffffff16815260200190815260200160002054905081811015610e64576040517f08c379a0000000000000000000000000000000000000000000000000000000008152600401610e5b90612076565b60405180910390fd5b8181036000808673ffffffffffffffffffffffffffffffffffffffff1673ffffffffffffffffffffffffffffffffffffffff16815260200190815260200160002081905550816000808573ffffffffffffffffffffffffffffffffffffffff1673ffffffffffffffffffffffffffffffffffffffff168152602001908152602001600020600082825401925050819055508273ffffffffffffffffffffffffffffffffffffffff168473ffffffffffffffffffffffffffffffffffffffff167fddf252ad1be2c89b69c2b068fc378daa952ba7f163c4a11628f55a4df523b3ef84604051610f5291906116ce565b60405180910390a3610f65848484611359565b50505050565b600073ffffffffffffffffffffffffffffffffffffffff168273ffffffffffffffffffffffffffffffffffffffff1603610fda576040517f08c379a0000000000000000000000000000000000000000000000000000000008152600401610fd1906120e2565b60405180910390fd5b610fe660008383611354565b8060026000828254610ff89190611b8c565b92505081905550806000808473ffffffffffffffffffffffffffffffffffffffff1673ffffffffffffffffffffffffffffffffffffffff168152602001908152602001600020600082825401925050819055508173ffffffffffffffffffffffffffffffffffffffff16600073ffffffffffffffffffffffffffffffffffffffff167fddf252ad1be2c89b69c2b068fc378daa952ba7f163c4a11628f55a4df523b3ef836040516110a991906116ce565b60405180910390a36110bd60008383611359565b5050565b600073ffffffffffffffffffffffffffffffffffffffff168273ffffffffffffffffffffffffffffffffffffffff1603611130576040517f08c379a000000000000000000000000000000000000000000000000000000000815260040161112790612174565b60405180910390fd5b61113c82600083611354565b60008060008473ffffffffffffffffffffffffffffffffffffffff1673ffffffffffffffffffffffffffffffffffffffff168152602001908152602001600020549050818110156111c2576040517f08c379a00000000000000000000000000000000000000000000000000000000081526004016111b990612206565b60405180910390fd5b8181036000808573ffffffffffffffffffffffffffffffffffffffff1673ffffffffffffffffffffffffffffffffffffffff1681526020019081526020016000208190555081600260008282540392505081905550600073ffffffffffffffffffffffffffffffffffffffff168373ffffffffffffffffffffffffffffffffffffffff167fddf252ad1be2c89b69c2b068fc378daa952ba7f163c4a11628f55a4df523b3ef8460405161127591906116ce565b60405180910390a361128983600084611359565b505050565b6000600560009054906101000a900473ffffffffffffffffffffffffffffffffffffffff16905081600560006101000a81548173ffffffffffffffffffffffffffffffffffffffff021916908373ffffffffffffffffffffffffffffffffffffffff1602179055508173ffffffffffffffffffffffffffffffffffffffff168173ffffffffffffffffffffffffffffffffffffffff167f8be0079c531659141344cd1fd0a4f28419497f9722a3daafe3b4186f6b6457e060405160405180910390a35050565b505050565b505050565b600081519050919050565b600082825260208201905092915050565b60005b8381101561139857808201518184015260208101905061137d565b60008484015250505050565b6000601f19601f8301169050919050565b60006113c08261135e565b6113ca8185611369565b93506113da81856020860161137a565b6113e3816113a4565b840191505092915050565b6000602082019050818103600083015261140881846113b5565b905092915050565b6000604051905090565b600080fd5b600080fd5b600073ffffffffffffffffffffffffffffffffffffffff82169050919050565b600061144f82611424565b9050919050565b61145f81611444565b811461146a57600080fd5b50565b60008135905061147c81611456565b92915050565b6000819050919050565b61149581611482565b81146114a057600080fd5b50565b6000813590506114b28161148c565b92915050565b600080604083850312156114cf576114ce61141a565b5b60006114dd8582860161146d565b92505060206114ee858286016114a3565b9150509250929050565b60008115159050919050565b61150d816114f8565b82525050565b60006020820190506115286000830184611504565b92915050565b600080fd5b600080fd5b7f4e487b7100000000000000000000000000000000000000000000000000000000600052604160045260246000fd5b611570826113a4565b810181811067ffffffffffffffff8211171561158f5761158e611538565b5b80604052505050565b60006115a2611410565b90506115ae8282611567565b919050565b600067ffffffffffffffff8211156115ce576115cd611538565b5b6115d7826113a4565b9050602081019050919050565b82818337600083830152505050565b6000611606611601846115b3565b611598565b90508281526020810184848401111561162257611621611533565b5b61162d8482856115e4565b509392505050565b600082601f83011261164a5761164961152e565b5b813561165a8482602086016115f3565b91505092915050565b6000806040838503121561167a5761167961141a565b5b600083013567ffffffffffffffff8111156116985761169761141f565b5b6116a485828601611635565b92505060206116b5858286016114a3565b9150509250929050565b6116c881611482565b82525050565b60006020820190506116e360008301846116bf565b92915050565b6000806000606084860312156117025761170161141a565b5b60006117108682870161146d565b93505060206117218682870161146d565b9250506040611732868287016114a3565b9150509250925092565b600060ff82169050919050565b6117528161173c565b82525050565b600060208201905061176d6000830184611749565b92915050565b6000602082840312156117895761178861141a565b5b6000611797848285016114a3565b91505092915050565b6000602082840312156117b6576117b561141a565b5b60006117c48482850161146d565b91505092915050565b6117d681611444565b82525050565b60006020820190506117f160008301846117cd565b92915050565b6000806040838503121561180e5761180d61141a565b5b600061181c8582860161146d565b925050602061182d8582860161146d565b9150509250929050565b7f4e487b7100000000000000000000000000000000000000000000000000000000600052602260045260246000fd5b6000600282049050600182168061187e57607f821691505b60208210810361189157611890611837565b5b50919050565b60008190508160005260206000209050919050565b60006020601f8301049050919050565b600082821b905092915050565b6000600883026118f97fffffffffffffffffffffffffffffffffffffffffffffffffffffffffffffffff826118bc565b61190386836118bc565b95508019841693508086168417925050509392505050565b6000819050919050565b600061194061193b61193684611482565b61191b565b611482565b9050919050565b6000819050919050565b61195a83611925565b61196e61196682611947565b8484546118c9565b825550505050565b600090565b611983611976565b61198e818484611951565b505050565b5b818110156119b2576119a760008261197b565b600181019050611994565b5050565b601f8211156119f7576119c881611897565b6119d1846118ac565b810160208510156119e0578190505b6119f46119ec856118ac565b830182611993565b50505b505050565b600082821c905092915050565b6000611a1a600019846008026119fc565b1980831691505092915050565b6000611a338383611a09565b9150826002028217905092915050565b611a4c8261135e565b67ffffffffffffffff811115611a6557611a64611538565b5b611a6f8254611866565b611a7a8282856119b6565b600060209050601f831160018114611aad5760008415611a9b578287015190505b611aa58582611a27565b865550611b0d565b601f198416611abb86611897565b60005b82811015611ae357848901518255600182019150602085019450602081019050611abe565b86831015611b005784890151611afc601f891682611a09565b8355505b6001600288020188555050505b505050505050565b7f4e487b7100000000000000000000000000000000000000000000000000000000600052601160045260246000fd5b6000611b4f82611482565b91507fffffffffffffffffffffffffffffffffffffffffffffffffffffffffffffffff8203611b8157611b80611b15565b5b600182019050919050565b6000611b9782611482565b9150611ba283611482565b9250828201905080821115611bba57611bb9611b15565b5b92915050565b7f45524332303a2064656372656173656420616c6c6f77616e63652062656c6f7760008201527f207a65726f000000000000000000000000000000000000000000000000000000602082015250565b6000611c1c602583611369565b9150611c2782611bc0565b604082019050919050565b60006020820190508181036000830152611c4b81611c0f565b9050919050565b7f4f776e61626c653a206e6577206f776e657220697320746865207a65726f206160008201527f6464726573730000000000000000000000000000000000000000000000000000602082015250565b6000611cae602683611369565b9150611cb982611c52565b604082019050919050565b60006020820190508181036000830152611cdd81611ca1565b9050919050565b7f45524332303a20617070726f76652066726f6d20746865207a65726f2061646460008201527f7265737300000000000000000000000000000000000000000000000000000000602082015250565b6000611d40602483611369565b9150611d4b82611ce4565b604082019050919050565b60006020820190508181036000830152611d6f81611d33565b9050919050565b7f45524332303a20617070726f766520746f20746865207a65726f20616464726560008201527f7373000000000000000000000000000000000000000000000000000000000000602082015250565b6000611dd2602283611369565b9150611ddd82611d76565b604082019050919050565b60006020820190508181036000830152611e0181611dc5565b9050919050565b7f4f776e61626c653a2063616c6c6572206973206e6f7420746865206f776e6572600082015250565b6000611e3e602083611369565b9150611e4982611e08565b602082019050919050565b60006020820190508181036000830152611e6d81611e31565b9050919050565b7f45524332303a20696e73756666696369656e7420616c6c6f77616e6365000000600082015250565b6000611eaa601d83611369565b9150611eb582611e74565b602082019050919050565b60006020820190508181036000830152611ed981611e9d565b9050919050565b7f45524332303a207472616e736665722066726f6d20746865207a65726f20616460008201527f6472657373000000000000000000000000000000000000000000000000000000602082015250565b6000611f3c602583611369565b9150611f4782611ee0565b604082019050919050565b60006020820190508181036000830152611f6b81611f2f565b9050919050565b7f45524332303a207472616e7366657220746f20746865207a65726f206164647260008201527f6573730000000000000000000000000000000000000000000000000000000000602082015250565b6000611fce602383611369565b9150611fd982611f72565b604082019050919050565b60006020820190508181036000830152611ffd81611fc1565b9050919050565b7f45524332303a207472616e7366657220616d6f756e742065786365656473206260008201527f616c616e63650000000000000000000000000000000000000000000000000000602082015250565b6000612060602683611369565b915061206b82612004565b604082019050919050565b6000602082019050818103600083015261208f81612053565b9050919050565b7f45524332303a206d696e7420746f20746865207a65726f206164647265737300600082015250565b60006120cc601f83611369565b91506120d782612096565b602082019050919050565b600060208201905081810360008301526120fb816120bf565b9050919050565b7f45524332303a206275726e2066726f6d20746865207a65726f2061646472657360008201527f7300000000000000000000000000000000000000000000000000000000000000602082015250565b600061215e602183611369565b915061216982612102565b604082019050919050565b6000602082019050818103600083015261218d81612151565b9050919050565b7f45524332303a206275726e20616d6f756e7420657863656564732062616c616e60008201527f6365000000000000000000000000000000000000000000000000000000000000602082015250565b60006121f0602283611369565b91506121fb82612194565b604082019050919050565b6000602082019050818103600083015261221f816121e3565b905091905056fea2646970667358221220ce01c42f881813ab5e010a9aedef3cc7cb580aedcb18c823fedbc5546abfa44764736f6c63430008120033",
  "linkReferences": {},
  "deployedLinkReferences": {}
}